{
  "_format": "hh-sol-artifact-1",
  "contractName": "ERC20Factory",
  "sourceName": "contracts/ERC20Factory.sol",
  "abi": [
    {
      "anonymous": false,
      "inputs": [
        {
          "indexed": false,
          "internalType": "address",
          "name": "tokenAddress",
          "type": "address"
        }
      ],
      "name": "ERC20TokenCreated",
      "type": "event"
    },
    {
      "inputs": [
        {
          "internalType": "string",
          "name": "name",
          "type": "string"
        },
        {
          "internalType": "string",
          "name": "symbol",
          "type": "string"
        },
        {
          "internalType": "uint8",
          "name": "decimals",
          "type": "uint8"
        },
        {
          "internalType": "uint256",
          "name": "initialSupply",
          "type": "uint256"
        }
      ],
      "name": "deployNewERC20Token",
      "outputs": [
        {
          "internalType": "address",
          "name": "",
          "type": "address"
        }
      ],
      "stateMutability": "nonpayable",
      "type": "function"
    }
  ],
  "bytecode": "0x608060405234801561001057600080fd5b50612160806100206000396000f3fe60806040523480156200001157600080fd5b50600436106200002e5760003560e01c806355c1b0ff1462000033575b600080fd5b6200005160048036038101906200004b9190620001f9565b62000069565b604051620000609190620002f6565b60405180910390f35b600080878787878787336040516200008190620000fa565b62000093979695949392919062000399565b604051809103906000f080158015620000b0573d6000803e3d6000fd5b5090507f60122e78030aba0a2e4a67adb3e52b411343cc51778f919095d3fe394090c1b281604051620000e49190620002f6565b60405180910390a1809150509695505050505050565b611d22806200040983390190565b600080fd5b600080fd5b600080fd5b600080fd5b600080fd5b60008083601f8401126200013a576200013962000112565b5b8235905067ffffffffffffffff8111156200015a576200015962000117565b5b6020830191508360018202830111156200017957620001786200011c565b5b9250929050565b600060ff82169050919050565b620001988162000180565b8114620001a457600080fd5b50565b600081359050620001b8816200018d565b92915050565b6000819050919050565b620001d381620001be565b8114620001df57600080fd5b50565b600081359050620001f381620001c8565b92915050565b6000806000806000806080878903121562000219576200021862000108565b5b600087013567ffffffffffffffff8111156200023a57620002396200010d565b5b6200024889828a0162000121565b9650965050602087013567ffffffffffffffff8111156200026e576200026d6200010d565b5b6200027c89828a0162000121565b945094505060406200029189828a01620001a7565b9250506060620002a489828a01620001e2565b9150509295509295509295565b600073ffffffffffffffffffffffffffffffffffffffff82169050919050565b6000620002de82620002b1565b9050919050565b620002f081620002d1565b82525050565b60006020820190506200030d6000830184620002e5565b92915050565b600082825260208201905092915050565b82818337600083830152505050565b6000601f19601f8301169050919050565b600062000352838562000313565b93506200036183858462000324565b6200036c8362000333565b840190509392505050565b620003828162000180565b82525050565b6200039381620001be565b82525050565b600060a0820190508181036000830152620003b681898b62000344565b90508181036020830152620003cd81878962000344565b9050620003de604083018662000377565b620003ed606083018562000388565b620003fc6080830184620002e5565b9897505050505050505056fe60806040523480156200001157600080fd5b5060405162001d2238038062001d22833981810160405281019062000037919062000556565b84848160039080519060200190620000519291906200022b565b5080600490805190602001906200006a9291906200022b565b5050506200009d818460ff16600a6200008491906200079f565b84620000919190620007f0565b620000a860201b60201c565b5050505050620009c4565b600073ffffffffffffffffffffffffffffffffffffffff168273ffffffffffffffffffffffffffffffffffffffff1614156200011b576040517f08c379a00000000000000000000000000000000000000000000000000000000081526004016200011290620008b2565b60405180910390fd5b6200012f600083836200022160201b60201c565b8060026000828254620001439190620008d4565b92505081905550806000808473ffffffffffffffffffffffffffffffffffffffff1673ffffffffffffffffffffffffffffffffffffffff16815260200190815260200160002060008282546200019a9190620008d4565b925050819055508173ffffffffffffffffffffffffffffffffffffffff16600073ffffffffffffffffffffffffffffffffffffffff167fddf252ad1be2c89b69c2b068fc378daa952ba7f163c4a11628f55a4df523b3ef8360405162000201919062000942565b60405180910390a36200021d600083836200022660201b60201c565b5050565b505050565b505050565b82805462000239906200098e565b90600052602060002090601f0160209004810192826200025d5760008555620002a9565b82601f106200027857805160ff1916838001178555620002a9565b82800160010185558215620002a9579182015b82811115620002a85782518255916020019190600101906200028b565b5b509050620002b89190620002bc565b5090565b5b80821115620002d7576000816000905550600101620002bd565b5090565b6000604051905090565b600080fd5b600080fd5b600080fd5b600080fd5b6000601f19601f8301169050919050565b7f4e487b7100000000000000000000000000000000000000000000000000000000600052604160045260246000fd5b6200034482620002f9565b810181811067ffffffffffffffff821117156200036657620003656200030a565b5b80604052505050565b60006200037b620002db565b905062000389828262000339565b919050565b600067ffffffffffffffff821115620003ac57620003ab6200030a565b5b620003b782620002f9565b9050602081019050919050565b60005b83811015620003e4578082015181840152602081019050620003c7565b83811115620003f4576000848401525b50505050565b6000620004116200040b846200038e565b6200036f565b90508281526020810184848401111562000430576200042f620002f4565b5b6200043d848285620003c4565b509392505050565b600082601f8301126200045d576200045c620002ef565b5b81516200046f848260208601620003fa565b91505092915050565b600060ff82169050919050565b620004908162000478565b81146200049c57600080fd5b50565b600081519050620004b08162000485565b92915050565b6000819050919050565b620004cb81620004b6565b8114620004d757600080fd5b50565b600081519050620004eb81620004c0565b92915050565b600073ffffffffffffffffffffffffffffffffffffffff82169050919050565b60006200051e82620004f1565b9050919050565b620005308162000511565b81146200053c57600080fd5b50565b600081519050620005508162000525565b92915050565b600080600080600060a08688031215620005755762000574620002e5565b5b600086015167ffffffffffffffff811115620005965762000595620002ea565b5b620005a48882890162000445565b955050602086015167ffffffffffffffff811115620005c857620005c7620002ea565b5b620005d68882890162000445565b9450506040620005e9888289016200049f565b9350506060620005fc88828901620004da565b92505060806200060f888289016200053f565b9150509295509295909350565b7f4e487b7100000000000000000000000000000000000000000000000000000000600052601160045260246000fd5b60008160011c9050919050565b6000808291508390505b6001851115620006aa578086048111156200068257620006816200061c565b5b6001851615620006925780820291505b8081029050620006a2856200064b565b945062000662565b94509492505050565b600082620006c5576001905062000798565b81620006d5576000905062000798565b8160018114620006ee5760028114620006f9576200072f565b600191505062000798565b60ff8411156200070e576200070d6200061c565b5b8360020a9150848211156200072857620007276200061c565b5b5062000798565b5060208310610133831016604e8410600b8410161715620007695782820a9050838111156200076357620007626200061c565b5b62000798565b62000778848484600162000658565b925090508184048111156200079257620007916200061c565b5b81810290505b9392505050565b6000620007ac82620004b6565b9150620007b983620004b6565b9250620007e87fffffffffffffffffffffffffffffffffffffffffffffffffffffffffffffffff8484620006b3565b905092915050565b6000620007fd82620004b6565b91506200080a83620004b6565b9250817fffffffffffffffffffffffffffffffffffffffffffffffffffffffffffffffff04831182151516156200084657620008456200061c565b5b828202905092915050565b600082825260208201905092915050565b7f45524332303a206d696e7420746f20746865207a65726f206164647265737300600082015250565b60006200089a601f8362000851565b9150620008a78262000862565b602082019050919050565b60006020820190508181036000830152620008cd816200088b565b9050919050565b6000620008e182620004b6565b9150620008ee83620004b6565b9250827fffffffffffffffffffffffffffffffffffffffffffffffffffffffffffffffff038211156200092657620009256200061c565b5b828201905092915050565b6200093c81620004b6565b82525050565b600060208201905062000959600083018462000931565b92915050565b7f4e487b7100000000000000000000000000000000000000000000000000000000600052602260045260246000fd5b60006002820490506001821680620009a757607f821691505b60208210811415620009be57620009bd6200095f565b5b50919050565b61134e80620009d46000396000f3fe608060405234801561001057600080fd5b50600436106100a95760003560e01c80633950935111610071578063395093511461016857806370a082311461019857806395d89b41146101c8578063a457c2d7146101e6578063a9059cbb14610216578063dd62ed3e14610246576100a9565b806306fdde03146100ae578063095ea7b3146100cc57806318160ddd146100fc57806323b872dd1461011a578063313ce5671461014a575b600080fd5b6100b6610276565b6040516100c39190610c08565b60405180910390f35b6100e660048036038101906100e19190610cc3565b610308565b6040516100f39190610d1e565b60405180910390f35b61010461032b565b6040516101119190610d48565b60405180910390f35b610134600480360381019061012f9190610d63565b610335565b6040516101419190610d1e565b60405180910390f35b610152610364565b60405161015f9190610dd2565b60405180910390f35b610182600480360381019061017d9190610cc3565b61036d565b60405161018f9190610d1e565b60405180910390f35b6101b260048036038101906101ad9190610ded565b610417565b6040516101bf9190610d48565b60405180910390f35b6101d061045f565b6040516101dd9190610c08565b60405180910390f35b61020060048036038101906101fb9190610cc3565b6104f1565b60405161020d9190610d1e565b60405180910390f35b610230600480360381019061022b9190610cc3565b6105db565b60405161023d9190610d1e565b60405180910390f35b610260600480360381019061025b9190610e1a565b6105fe565b60405161026d9190610d48565b60405180910390f35b60606003805461028590610e89565b80601f01602080910402602001604051908101604052809291908181526020018280546102b190610e89565b80156102fe5780601f106102d3576101008083540402835291602001916102fe565b820191906000526020600020905b8154815290600101906020018083116102e157829003601f168201915b5050505050905090565b600080610313610685565b905061032081858561068d565b600191505092915050565b6000600254905090565b600080610340610685565b905061034d858285610858565b6103588585856108e4565b60019150509392505050565b60006012905090565b600080610378610685565b905061040c818585600160008673ffffffffffffffffffffffffffffffffffffffff1673ffffffffffffffffffffffffffffffffffffffff16815260200190815260200160002060008973ffffffffffffffffffffffffffffffffffffffff1673ffffffffffffffffffffffffffffffffffffffff168152602001908152602001600020546104079190610eea565b61068d565b600191505092915050565b60008060008373ffffffffffffffffffffffffffffffffffffffff1673ffffffffffffffffffffffffffffffffffffffff168152602001908152602001600020549050919050565b60606004805461046e90610e89565b80601f016020809104026020016040519081016040528092919081815260200182805461049a90610e89565b80156104e75780601f106104bc576101008083540402835291602001916104e7565b820191906000526020600020905b8154815290600101906020018083116104ca57829003601f168201915b5050505050905090565b6000806104fc610685565b90506000600160008373ffffffffffffffffffffffffffffffffffffffff1673ffffffffffffffffffffffffffffffffffffffff16815260200190815260200160002060008673ffffffffffffffffffffffffffffffffffffffff1673ffffffffffffffffffffffffffffffffffffffff168152602001908152602001600020549050838110156105c2576040517f08c379a00000000000000000000000000000000000000000000000000000000081526004016105b990610fb2565b60405180910390fd5b6105cf828686840361068d565b60019250505092915050565b6000806105e6610685565b90506105f38185856108e4565b600191505092915050565b6000600160008473ffffffffffffffffffffffffffffffffffffffff1673ffffffffffffffffffffffffffffffffffffffff16815260200190815260200160002060008373ffffffffffffffffffffffffffffffffffffffff1673ffffffffffffffffffffffffffffffffffffffff16815260200190815260200160002054905092915050565b600033905090565b600073ffffffffffffffffffffffffffffffffffffffff168373ffffffffffffffffffffffffffffffffffffffff1614156106fd576040517f08c379a00000000000000000000000000000000000000000000000000000000081526004016106f490611044565b60405180910390fd5b600073ffffffffffffffffffffffffffffffffffffffff168273ffffffffffffffffffffffffffffffffffffffff16141561076d576040517f08c379a0000000000000000000000000000000000000000000000000000000008152600401610764906110d6565b60405180910390fd5b80600160008573ffffffffffffffffffffffffffffffffffffffff1673ffffffffffffffffffffffffffffffffffffffff16815260200190815260200160002060008473ffffffffffffffffffffffffffffffffffffffff1673ffffffffffffffffffffffffffffffffffffffff168152602001908152602001600020819055508173ffffffffffffffffffffffffffffffffffffffff168373ffffffffffffffffffffffffffffffffffffffff167f8c5be1e5ebec7d5bd14f71427d1e84f3dd0314c0f7b2291e5b200ac8c7c3b9258360405161084b9190610d48565b60405180910390a3505050565b600061086484846105fe565b90507fffffffffffffffffffffffffffffffffffffffffffffffffffffffffffffffff81146108de57818110156108d0576040517f08c379a00000000000000000000000000000000000000000000000000000000081526004016108c790611142565b60405180910390fd5b6108dd848484840361068d565b5b50505050565b600073ffffffffffffffffffffffffffffffffffffffff168373ffffffffffffffffffffffffffffffffffffffff161415610954576040517f08c379a000000000000000000000000000000000000000000000000000000000815260040161094b906111d4565b60405180910390fd5b600073ffffffffffffffffffffffffffffffffffffffff168273ffffffffffffffffffffffffffffffffffffffff1614156109c4576040517f08c379a00000000000000000000000000000000000000000000000000000000081526004016109bb90611266565b60405180910390fd5b6109cf838383610b65565b60008060008573ffffffffffffffffffffffffffffffffffffffff1673ffffffffffffffffffffffffffffffffffffffff16815260200190815260200160002054905081811015610a55576040517f08c379a0000000000000000000000000000000000000000000000000000000008152600401610a4c906112f8565b60405180910390fd5b8181036000808673ffffffffffffffffffffffffffffffffffffffff1673ffffffffffffffffffffffffffffffffffffffff16815260200190815260200160002081905550816000808573ffffffffffffffffffffffffffffffffffffffff1673ffffffffffffffffffffffffffffffffffffffff1681526020019081526020016000206000828254610ae89190610eea565b925050819055508273ffffffffffffffffffffffffffffffffffffffff168473ffffffffffffffffffffffffffffffffffffffff167fddf252ad1be2c89b69c2b068fc378daa952ba7f163c4a11628f55a4df523b3ef84604051610b4c9190610d48565b60405180910390a3610b5f848484610b6a565b50505050565b505050565b505050565b600081519050919050565b600082825260208201905092915050565b60005b83811015610ba9578082015181840152602081019050610b8e565b83811115610bb8576000848401525b50505050565b6000601f19601f8301169050919050565b6000610bda82610b6f565b610be48185610b7a565b9350610bf4818560208601610b8b565b610bfd81610bbe565b840191505092915050565b60006020820190508181036000830152610c228184610bcf565b905092915050565b600080fd5b600073ffffffffffffffffffffffffffffffffffffffff82169050919050565b6000610c5a82610c2f565b9050919050565b610c6a81610c4f565b8114610c7557600080fd5b50565b600081359050610c8781610c61565b92915050565b6000819050919050565b610ca081610c8d565b8114610cab57600080fd5b50565b600081359050610cbd81610c97565b92915050565b60008060408385031215610cda57610cd9610c2a565b5b6000610ce885828601610c78565b9250506020610cf985828601610cae565b9150509250929050565b60008115159050919050565b610d1881610d03565b82525050565b6000602082019050610d336000830184610d0f565b92915050565b610d4281610c8d565b82525050565b6000602082019050610d5d6000830184610d39565b92915050565b600080600060608486031215610d7c57610d7b610c2a565b5b6000610d8a86828701610c78565b9350506020610d9b86828701610c78565b9250506040610dac86828701610cae565b9150509250925092565b600060ff82169050919050565b610dcc81610db6565b82525050565b6000602082019050610de76000830184610dc3565b92915050565b600060208284031215610e0357610e02610c2a565b5b6000610e1184828501610c78565b91505092915050565b60008060408385031215610e3157610e30610c2a565b5b6000610e3f85828601610c78565b9250506020610e5085828601610c78565b9150509250929050565b7f4e487b7100000000000000000000000000000000000000000000000000000000600052602260045260246000fd5b60006002820490506001821680610ea157607f821691505b60208210811415610eb557610eb4610e5a565b5b50919050565b7f4e487b7100000000000000000000000000000000000000000000000000000000600052601160045260246000fd5b6000610ef582610c8d565b9150610f0083610c8d565b9250827fffffffffffffffffffffffffffffffffffffffffffffffffffffffffffffffff03821115610f3557610f34610ebb565b5b828201905092915050565b7f45524332303a2064656372656173656420616c6c6f77616e63652062656c6f7760008201527f207a65726f000000000000000000000000000000000000000000000000000000602082015250565b6000610f9c602583610b7a565b9150610fa782610f40565b604082019050919050565b60006020820190508181036000830152610fcb81610f8f565b9050919050565b7f45524332303a20617070726f76652066726f6d20746865207a65726f2061646460008201527f7265737300000000000000000000000000000000000000000000000000000000602082015250565b600061102e602483610b7a565b915061103982610fd2565b604082019050919050565b6000602082019050818103600083015261105d81611021565b9050919050565b7f45524332303a20617070726f766520746f20746865207a65726f20616464726560008201527f7373000000000000000000000000000000000000000000000000000000000000602082015250565b60006110c0602283610b7a565b91506110cb82611064565b604082019050919050565b600060208201905081810360008301526110ef816110b3565b9050919050565b7f45524332303a20696e73756666696369656e7420616c6c6f77616e6365000000600082015250565b600061112c601d83610b7a565b9150611137826110f6565b602082019050919050565b6000602082019050818103600083015261115b8161111f565b9050919050565b7f45524332303a207472616e736665722066726f6d20746865207a65726f20616460008201527f6472657373000000000000000000000000000000000000000000000000000000602082015250565b60006111be602583610b7a565b91506111c982611162565b604082019050919050565b600060208201905081810360008301526111ed816111b1565b9050919050565b7f45524332303a207472616e7366657220746f20746865207a65726f206164647260008201527f6573730000000000000000000000000000000000000000000000000000000000602082015250565b6000611250602383610b7a565b915061125b826111f4565b604082019050919050565b6000602082019050818103600083015261127f81611243565b9050919050565b7f45524332303a207472616e7366657220616d6f756e742065786365656473206260008201527f616c616e63650000000000000000000000000000000000000000000000000000602082015250565b60006112e2602683610b7a565b91506112ed82611286565b604082019050919050565b60006020820190508181036000830152611311816112d5565b905091905056fea26469706673582212209fa6131926f05a9e2a14b20b8dc012c3c93020e3c5f588b849fd5a3192f04ee864736f6c63430008090033a2646970667358221220c0d491b46d43c51fa289f13e0e9aac53768e52ce96db100d2b76ef01fde6d6ff64736f6c63430008090033",
  "linkReferences": {},
  "deployedLinkReferences": {}
}